:02000000702A64
:0C000600000000000000000000000800E6
:10001200243083120313FC00B530FD00FD0B0F28C2
:0A002200FC0B0F280000000008008E
:0E002C00533083120313FD00FD0B1A28080049
:10003A00831203179A1B24280313881326280313F1
:10004A00881703171A1B2C28031308132E280313C7
:10005A00081703179A1A3428031388123628031329
:10006A00881603171A1A3C28031308123E2803138A
:10007A0008166D184228081443280810881403200B
:10008A00881003179A194C28031388134E28031350
:10009A00881703171A195428031308135628031329
:1000AA00081703179A185C28031388125E2803138B
:1000BA00881603171A1864280313081266280313EC
:1000CA0008166D186A2808146B280810881403206B
:0E00DA0088106D1C722809207328162008005B
:1000E800043083120313FC003A30FD00FD0B7A281C
:0800F800FC0B7A28000008004F
:10010000710DF80DF90D7408F8027508031C750FD0
:10011000F902F00DF10D0F30FC00710DF80DF90D25
:100120007408701C9928F8027508031C750FF902F1
:100130009E28F80775080318750FF907F00DF10DE3
:10014000FC0B8D287018AA287408F8077508031886
:08015000750FF907000008001B
:10015800831203136D1083166F08831203179A0016
:060168001D206D140800CB
:0E016E00831203136F088A006E0882000800D7
:10017C0083120313F8010830FC00700DF80D74089D
:10018C00F8020318CB28F8070310F00DFC0BC3285A
:02019C00080059
:10019E00831203137408003A031DDE287508003A13
:1001AE00031DDE28FF30F0007F30F1003729831267
:1001BE000313FD01F901F8017108700403190034ED
:1001CE0071087506FA00FA1BFD09FB01F51FF428EC
:1001DE00F409F509F40A0319F50AF11FFB28F009D1
:1001EE00F109F00A0319F10A71087504FA00FA1BF5
:1001FE00102980207B182329FD1F0034F009F109F6
:10020E00F00A0319F10AF809F909F80A0319F90AAB
:10021E000034F51F1F29F11B1B297108F900700806
:10022E00F800F101F0010329F101F001F00A0034A8
:10023E00F109F009FB0A0029F80A0319F90A7408F2
:10024E007802031D032975087902031D0329F9019C
:10025E00F801F00A0319F10AF11F03290000FF3417
:02026E00080086
:1002700083120313FB01FA01F9018030F800F10C3D
:10028000F00C031C4C297408F90775080318750F46
:10029000FA070318FB0A0310F01F54297408FA0721
:1002A00075080318750FFB07FB0CFA0CF90CF80C1A
:1002B000031C3F297B08F3007A08F2007908F1005B
:0602C0007808F0000800C0
:1002C60083160313EE016A08F1000130F00071088D
:1002D60003197129F00D7010FF3E6B297008ED00AF
:1002E6006908840070080005F10071080130031DDB
:1002F6000030F0006C08F00603199A296B08003CE0
:1003060003188A29742074208316EB03812969084F
:1003160084006D080005F10071080130031D0030EE
:10032600F0006C08F00603199A29FF30EE006E08FB
:04033600F0000800CB
:10033A00AF29803083160313E900C229C030E900CF
:10034A00C2299430E900C229D430E900C229803098
:10035A00E900C229831603136908013A03199E2981
:10036A006908023A0319A3296908033A0319A62955
:10037A006908043A0319A929AC296A03F000690833
:10038A00F0077008E9007008831203179A001D200D
:10039A006D108316EC016C086B07840000080319C2
:1003AA00DF296C086B0784000008EF00AC20831675
:0A03BA00EC0AD02983126D1408002C
:1003C4008316031388100810081288120813881360
:1003D4008312881008108813081388120812092041
:1003E400092009208816081688140320881009207B
:1003F40088140320881009208814032088100920F9
:1004040008128814032088100920881403208810F7
:100414008812881788140320881009208813081666
:1004240088140320881008128814032088100920D7
:1004340088140320881008168814032088100920C3
:1004440008128814032088108817081788160816BD
:0C04540088140320881009206D14080093
:10046000B7208A110A128000840AEE0A0319EF0AE3
:08047000F003031D302A08000F
:1004780083160313EB0103306B0203184A2A6B0837
:100488006A07840020308000EB0A3F2A6B086A075D
:1004980084008001EB036B086A07EC000A30F40063
:1004A8006908F000BE207808F0003030F0078316A5
:1004B8006C088400700880000A30F4006908F000B5
:1004C800BE2070088316E9007008003A031D6D2AE3
:0804D8006F2AEB034F2A080014
:1004E000E8260730831603139F04870183128701D0
:1004F000FF3086008316880183128801013083163D
:1005000086008113E2210C3003179A001D20013070
:100510008316E9000330EA002D30EB009D21023004
:100520008316E9000230EA002030EB009D211A30EA
:10053000FB005E30FC006E30FD00FD0B9D2AFC0BC5
:100540009D2AFB0B9D2A0000013003179A001D20F5
:1005500006308316E9000330EA000A30EB00EC01B4
:100560006321700803194D2B0130831203179A0081
:100570001D2001308316E9000330EA00BC30EB0097
:100580009D2102308316E9000330EA00B030EB0011
:100590009D21083087000330FB008A30FC00553075
:1005A000FD00FD0BD12AFC0BD12AFB0BD12A000048
:1005B00000000C3087000330FB008A30FC0055300F
:1005C000FD00FD0BE12AFC0BE12AFB0BE12A0000F8
:1005D0000000043087000330FB008A30FC005530F7
:1005E000FD00FD0BF12AFC0BF12AFB0BF12A0000A8
:1005F0000000063087000330FB008A30FC005530D5
:10060000FD00FD0B012BFC0B012BFB0B012B000054
:100610000000023087000330FB008A30FC005530B8
:10062000FD00FD0B112BFC0B112BFB0B112B000004
:100630000000033087000330FB008A30FC00553097
:10064000FD00FD0B212BFC0B212BFB0B212B0000B4
:100650000000013087000330FB008A30FC00553079
:10066000FD00FD0B312BFC0B312BFB0B312B000064
:100670000000093087000330FB008A30FC00553051
:10068000FD00FD0B412BFC0B412BFB0B412B000014
:100690000000013003179A001D2006308316E90080
:1006A0000430EA000A30EB00EC0163217008031902
:1006B000F22B0130831203179A001D20013083169C
:1006C000E9000330EA006130EB009D21023083161F
:1006D000E9000330EA00D630EB009D2101308700AD
:1006E0000330FB008A30FC005530FD00FD0B762BFB
:1006F000FC0B762BFB0B762B0000000003308700F1
:100700000330FB008A30FC005530FD00FD0B862BCA
:10071000FC0B862BFB0B862B0000000002308700B1
:100720000330FB008A30FC005530FD00FD0B962B9A
:10073000FC0B962BFB0B962B00000000063087006D
:100740000330FB008A30FC005530FD00FD0BA62B6A
:10075000FC0BA62BFB0BA62B00000000043087002F
:100760000330FB008A30FC005530FD00FD0BB62B3A
:10077000FC0BB62BFB0BB62B000000000C308700E7
:100780000330FB008A30FC005530FD00FD0BC62B0A
:10079000FC0BC62BFB0BC62B0000000008308700AB
:1007A0000330FB008A30FC005530FD00FD0BD62BDA
:1007B000FC0BD62BFB0BD62B00000000093087006A
:1007C0000330FB008A30FC005530FD00FD0BE62BAA
:1007D000FC0BE62BFB0BE62B00000000013003179F
:1007E0009A001D2001308316E9000130EA00C6306E
:1007F000EB009D210330FB008A30FC005530FD00EA
:10080000FD0B002CFC0B002CFB0B002C000000004F
:1008100006308316E900EA013230EB00EC01632177
:1008200070080319362C8312EB0A0319EC0A4130C5
:10083000FC00EE30FD00FD0B1B2CFC0B1B2C000004
:100840006B088316E9001030EA003C220230E90010
:100850000130EA001030EB009D214130FC00EE3009
:10086000FD00FD0B312CFC0B312C000006308316F3
:10087000E9000130EA003230EB00EC01632170083E
:100880000319622C83126B08F0006C08F1000C3025
:10089000F4000030F50038217008DA007108DB0040
:1008A000D801D901EB01EC014130FC00EE30FD0034
:1008B000FD0B582CFC0B582C0000013003179A003C
:1008C0001D208F2C06308316E9000230EA003230FA
:1008D000EB00EC016321700803198E2C83126B0866
:1008E000F0006C08F1000C30F4000030F500382105
:1008F0007008D8007108D900DA01DB01EB01EC01C6
:100900004130FC00EE30FD00FD0B842CFC0B842CF0
:100910000000013003179A001D208F2CA82A83168F
:10092000E201E30180306306F000803083125B0651
:100930007002031D9E2C5A088316620203184C2D68
:100940000C30F4000030F50083125A08F0005B0808
:10095000F100CF2070088316E900E430EA003C2261
:100960000130E9000130EA00A030EB009D210230A7
:100970008316E9000130EA00E430EB009D210230EB
:100980008316E9000530EA005C30EB009D21083059
:1009900087000330FB008A30FC005530FD00FD0B62
:1009A000CF2CFC0BCF2CFB0BCF2C000000000C300D
:1009B00087000330FB008A30FC005530FD00FD0B42
:1009C000DF2CFC0BDF2CFB0BDF2C000000000430C5
:1009D00087000330FB008A30FC005530FD00FD0B22
:1009E000EF2CFC0BEF2CFB0BEF2C00000000063073
:1009F00087000330FB008A30FC005530FD00FD0B02
:100A0000FF2CFC0BFF2CFB0BFF2C00000000023026
:100A100087000330FB008A30FC005530FD00FD0BE1
:100A20000F2DFC0B0F2DFB0B0F2D000000000330D2
:100A300087000330FB008A30FC005530FD00FD0BC1
:100A40001F2DFC0B1F2DFB0B1F2D00000000013084
:100A500087000330FB008A30FC005530FD00FD0BA1
:100A60002F2DFC0B2F2DFB0B2F2D0000000009302C
:100A700087000330FB008A30FC005530FD00FD0B81
:100A80003F2DFC0B3F2DFB0B3F2D0000000083167C
:100A9000E20A0319E30A922C8316E201E301803093
:100AA0006306F0008030831259067002031D5B2D2F
:100AB0005808831662020318092E0C30F400003027
:100AC000F50083125808F0005908F100CF20700893
:100AD0008316E900E430EA003C220130E9000130ED
:100AE000EA003830EB009D2102308316E900013026
:100AF000EA00E430EB009D2102308316E900053066
:100B0000EA004E30EB009D21013087000330FB00EE
:100B10008A30FC005530FD00FD0B8C2DFC0B8C2D1C
:100B2000FB0B8C2D00000000033087000330FB001E
:100B30008A30FC005530FD00FD0B9C2DFC0B9C2DDC
:100B4000FB0B9C2D00000000023087000330FB00EF
:100B50008A30FC005530FD00FD0BAC2DFC0BAC2D9C
:100B6000FB0BAC2D00000000063087000330FB00BB
:100B70008A30FC005530FD00FD0BBC2DFC0BBC2D5C
:100B8000FB0BBC2D00000000043087000330FB008D
:100B90008A30FC005530FD00FD0BCC2DFC0BCC2D1C
:100BA000FB0BCC2D000000000C3087000330FB0055
:100BB0008A30FC005530FD00FD0BDC2DFC0BDC2DDC
:100BC000FB0BDC2D00000000083087000330FB0029
:100BD0008A30FC005530FD00FD0BEC2DFC0BEC2D9C
:100BE000FB0BEC2D00000000093087000330FB00F8
:100BF0008A30FC005530FD00FD0BFC2DFC0BFC2D5C
:100C0000FB0BFC2D000000008316E20A0319E30A27
:100C10004F2D8030F000803083125B067002031D80
:100C2000132E5A08003C03182E2E013003179A0089
:100C30001D2001308316E9000630EA004930EB0040
:100C40009D211A30FB005E30FC006E30FD00FD0B74
:100C5000272EFC0B272EFB0B272E00008030F000E8
:100C6000803059067002031D372E5808003C0318C7
:100C7000522E013003179A001D2001308316E9001F
:100C80000630EA005330EB009D211A30FB005E3045
:100C9000FC006E30FD00FD0B4B2EFC0B4B2EFB0BB6
:080CA0004B2E0000A82A532E80
:100DD00020308400413083120313F0005930EE00BC
:100DE0000630EF003022A03084001030F000CC300C
:100DF000EE000630EF003022613084000A30F0004F
:100E0000DC30EE000630EF003022B03084001630C7
:100E1000F000B630EE000630EF0030226B30840078
:100E20000230F000E630EE000630EF003022C6302F
:100E300084001C30F0009A30EE000630EF003022C3
:020E40000800A8
:100CB20044344F344E344734203443344F34203498
:0A0CC200423455344F3443340034FB
:100CCC00443449344534553420344B344834493455
:060CDC0045344E340034E3
:100CE200443441344E344734203451345534413441
:100CF200593420344E344734483449344334483428
:020D02000034BB
:0A0D0400533454344F34503400349B
:0A0D0E0056344F344E34473400349D
:0A0D1800533454344F345034003487
:040D22000034003465
:040D26000034003461
:0A0D2A0056344F344E344734003481
:100D340020344E34483441345034203453344F3406
:100D4400203456344F344E34473420343A3400344B
:100D5400513455344134593420344E3447344834B2
:080D64004934433448340034E3
:100D6C005134553441345934203454344834553486
:080D7C0041344E3420340034F0
:100D840054345534593420344334483449344E347B
:040D940048340034AB
:100D9800443441344E34473420345134553441348A
:100DA8005934203454344834553441344E340034A2
:100DB80054345534593420344334483449344E3447
:040DC8004834003477
:040DCC0000340034BB
:02400E004A2F37
:00000001FF
